:100C7600543A253032644320483A253032642525DB
:100C860020434E543A25303464205345433A2530A8
:100C960032640D0A000D0A3D3D3D20554152542057
:100CA60044617461204C6F6767657220537461728A
:100CB600746564203D3D3D0D0A00466F726D61749A
:100CC6003A2054656D702843292048756D6964691A
:100CD60074792825252920436F756E746572205313
:050CE60065630D0A002A
:0E0DE70001121901153C021000000213000059
:100DD500758920758DFD759850D28ED299D2ACD279
:020DE500AF223B
:100DB500E4FDFCC3ED9FEC9E5015E4FBFA0BBB0074
:0F0DC500010AEB64784A70F50DBD00010C80E463
:010DD40022FC
:100D69007BFF7A0C797685123A85153B0511E511D9
:100D790085103C7002051014F53D85133E85143F1E
:060D8900120862B2902284
:03000B00020CEBF9
:100CEB00C0E0C0F0C083C082C0D075D008758C3C0A
:100CFB00758AB074322514F514E43513F513C3E576
:100D0B001494E8E513940340237513007514000540
:100D1B0012E512D39423400375121974032515F5AC
:100D2B0015D394554003751532120D69D0D0D0826E
:070D3B00D083D0F0D0E032BC
:100D8F007590FF120DD5438902D2A97BFF7A0C799A
:100D9F009B1208627BFF7A0C79C01208627F647E17
:060DAF0000120DB580F7F3
:03000000020BEA06
:0C0BEA00787FE4F6D8FD75814A020C31DA
:10080000E546243AF8E60546227837301002783A71
:10081000E475F001120BB4020B5C2009EB7F2ED2C1
:10082000098018EF540F2490D43440D4FF300D0BBE
:10083000EF24BFB41A0050032461FFE5476002159E
:1008400047054AE54A7002054930100D7837E475CE
:10085000F001120BB4EF020BA2020D427403D2108E
:100860008003E4C210F5468B378A388939E4F547AE
:10087000F549F54AE54760077F2012083B80F5758A
:1008800048FFC20AC209C20BC20CC20EC20FC2117B
:10089000120809FF700D3010057F0012084CAF4A96
:1008A000AE4922B4255FC2D5C20D120809FF24D07B
:1008B000B40A00501A75F00A784730D50508B6FF1B
:1008C0000106C6A426F620D5047002D20C80D924D5
:1008D000CFB41A00EF5004C2E5D20D020A4CD20A7E
:1008E00080C6D20980C0D20B80BCD2D580BAD20ECD
:1008F00080B47F2012083B200B077401B5470040ED
:10090000F1120800FF12083B020874D211D20F80C6
:1009100095120800FB120800FA120800F94A4B7001
:1009200006791D7A0B7BFF200B2EE547602A7E009F
:100930008E82758300120B7560060EEE654870F0AE
:10094000C2D5EBC0E0EAC0E0E9C0E0EE120A93D005
:10095000E0F9D0E0FAD0E0FB120B5CFF60AAEBC03C
:10096000E0EAC0E0E9C0E012083BD0E02401F9D0A1
:10097000E03400FAD0E0FBE5480460DCD548D980DB
:10098000877BFF7A0A798FD20B809C79108002795D
:1009900008C20FC2118008D2D5790A8004790AC230
:1009A000D5E548047002F548E4FAFDFEFF120800A0
:1009B000FC7B08200A13120800FD7B1030090A1284
:1009C0000800FE120800FF7B20EC3382D592D55040
:1009D00013C3E43009069FFFE49EFEE4200A039D52
:1009E000FDE49CFCE4CBF8C20AEC700CCFCECDCC7D
:1009F000E824F8F870F38017C3EF33FFEE33FEED11
:100A000033FDEC33FCEB33FB994002FB0FD8E9EBF1
:100A1000300A05F8D0E0C448B20AC0E00AEC4D4EF6
:100A20004F78207B0070C2EAB5480040BCC0E0129D
:100A30000A95D0F0D0E0200A04C4C0E0C4B20AC0D5
:100A4000F0120824D0F0D5F0EB020874120BC409A0
:100A50001153098B5808E24C08DE42098F4F099761
:0F0A60004409974908F743099D550981460981C3
:100A6F00450981470B3D5008E62D08EA2E090D2B4D
:100A7F0008EE23090B200B262A08A64800000905BB
:100A8F003F3F3F00790AA2D5200C14300E09B91050
:100A9F00020404B9080104A2D5200F02500104205A
:100AAF000B68920BB547005034C0E07F20300C1913
:100ABF007F30A20B720F720E500F120AECC20BC2D4
:100ACF000FC20EC2117F30800F300E03E9C0E0124B
:100ADF00083B300E03D0E0F9D0E0B547CC300E170D
:100AEF007F30B9100C12083B7F58300D077F78808C
:100AFF0003B9080312083B300B057F2D02083B7F1B
:100B0F00202011F87F2B200FF322920B80CF286E1D
:100B1F00756C6C2900D20A120800300AF8C20A78E4
:100B2F004730D50108F60208A62D50434958120840
:100B3F00002403B405004001E4900B389312082CF5
:0D0B4F00743A12082CD20C75470402098B71
:100BF600020D8FE493A3F8E493A34003F68001F279
:100C060008DFF48029E493A3F85407240CC8C333FF
:100C1600C4540F4420C8834004F456800146F6DFCE
:100C2600E4800B0102040810204080900DE7E47E6A
:100C3600019360BCA3FF543F30E509541FFEE493C3
:100C4600A360010ECF54C025E060A840B8E493A38A
:100C5600FAE493A3F8E493A3C8C582C8CAC583CAB5
:100C6600F0A3C8C582C8CAC583CADFE9DEE780BE6D
:010DF50000FD
:100B5C00BB010689828A83E0225002E722BBFE0297
:090B6C00E32289828A83E49322CA
:100B7500BB010CE58229F582E5833AF583E0225035
:100B850006E92582F8E622BBFE06E92582F8E2227F
:0D0B9500E58229F582E5833AF583E4932299
:100BA200BB010689828A83F0225002F722BBFE0132
:020BB200F3222C
:100BB400FAE6FB0808E6F925F0F618E6CA3AF62242
:100BC400D083D082F8E4937012740193700DA3A3C0
:100BD40093F8740193F5828883E4737402936860D4
:060BE400EFA3A3A380DFD4
:100D4200EFB40A07740D120D4D740A309811A89968
:100D5200B8130CC2983098FDA899C298B811F63011
:070D620099FDC299F59922E9
:00000001FF
